{"abi":[{"type":"constructor","inputs":[{"name":"_usdc","type":"address","internalType":"address"},{"name":"_owner","type":"address","internalType":"address"}],"stateMutability":"nonpayable"},{"type":"function","name":"BPS_DENOMINATOR","inputs":[],"outputs":[{"name":"","type":"uint256","internalType":"uint256"}],"stateMutability":"view"},{"type":"function","name":"FEE_BPS","inputs":[],"outputs":[{"name":"","type":"uint256","internalType":"uint256"}],"stateMutability":"view"},{"type":"function","name":"LOW_REWARD_MAX_SLOTS","inputs":[],"outputs":[{"name":"","type":"uint256","internalType":"uint256"}],"stateMutability":"view"},{"type":"function","name":"LOW_REWARD_THRESHOLD","inputs":[],"outputs":[{"name":"","type":"uint256","internalType":"uint256"}],"stateMutability":"view"},{"type":"function","name":"MIN_REWARD_PER_SLOT","inputs":[],"outputs":[{"name":"","type":"uint256","internalType":"uint256"}],"stateMutability":"view"},{"type":"function","name":"REJECTION_MULTIPLIER","inputs":[],"outputs":[{"name":"","type":"uint256","internalType":"uint256"}],"stateMutability":"view"},{"type":"function","name":"accumulatedFees","inputs":[],"outputs":[{"name":"","type":"uint256","internalType":"uint256"}],"stateMutability":"view"},{"type":"function","name":"approveSubmission","inputs":[{"name":"submissionId","type":"uint256","internalType":"uint256"}],"outputs":[],"stateMutability":"nonpayable"},{"type":"function","name":"cancelTask","inputs":[{"name":"taskId","type":"uint256","internalType":"uint256"}],"outputs":[],"stateMutability":"nonpayable"},{"type":"function","name":"claimReward","inputs":[{"name":"submissionId","type":"uint256","internalType":"uint256"}],"outputs":[],"stateMutability":"nonpayable"},{"type":"function","name":"createTask","inputs":[{"name":"title","type":"string","internalType":"string"},{"name":"description","type":"string","internalType":"string"},{"name":"proofRequirements","type":"string","internalType":"string"},{"name":"proofType","type":"uint8","internalType":"enum Kwest.ProofType"},{"name":"rewardPerSlot","type":"uint256","internalType":"uint256"},{"name":"totalSlots","type":"uint256","internalType":"uint256"},{"name":"deadline","type":"uint256","internalType":"uint256"},{"name":"deductFeeFromPool","type":"bool","internalType":"bool"}],"outputs":[{"name":"taskId","type":"uint256","internalType":"uint256"}],"stateMutability":"nonpayable"},{"type":"function","name":"creatorTasks","inputs":[{"name":"","type":"address","internalType":"address"},{"name":"","type":"uint256","internalType":"uint256"}],"outputs":[{"name":"","type":"uint256","internalType":"uint256"}],"stateMutability":"view"},{"type":"function","name":"getAllTaskIds","inputs":[{"name":"offset","type":"uint256","internalType":"uint256"},{"name":"limit","type":"uint256","internalType":"uint256"}],"outputs":[{"name":"ids","type":"uint256[]","internalType":"uint256[]"},{"name":"total","type":"uint256","internalType":"uint256"}],"stateMutability":"view"},{"type":"function","name":"getCreatorTasks","inputs":[{"name":"creator","type":"address","internalType":"address"}],"outputs":[{"name":"","type":"uint256[]","internalType":"uint256[]"}],"stateMutability":"view"},{"type":"function","name":"getSubmission","inputs":[{"name":"submissionId","type":"uint256","internalType":"uint256"}],"outputs":[{"name":"","type":"tuple","internalType":"struct Kwest.Submission","components":[{"name":"id","type":"uint256","internalType":"uint256"},{"name":"taskId","type":"uint256","internalType":"uint256"},{"name":"worker","type":"address","internalType":"address"},{"name":"proofData","type":"string","internalType":"string"},{"name":"proofType","type":"uint8","internalType":"enum Kwest.ProofType"},{"name":"status","type":"uint8","internalType":"enum Kwest.SubmissionStatus"},{"name":"submittedAt","type":"uint256","internalType":"uint256"},{"name":"claimed","type":"bool","internalType":"bool"}]}],"stateMutability":"view"},{"type":"function","name":"getTask","inputs":[{"name":"taskId","type":"uint256","internalType":"uint256"}],"outputs":[{"name":"","type":"tuple","internalType":"struct Kwest.Task","components":[{"name":"id","type":"uint256","internalType":"uint256"},{"name":"creator","type":"address","internalType":"address"},{"name":"title","type":"string","internalType":"string"},{"name":"description","type":"string","internalType":"string"},{"name":"proofRequirements","type":"string","internalType":"string"},{"name":"proofType","type":"uint8","internalType":"enum Kwest.ProofType"},{"name":"rewardPerSlot","type":"uint256","internalType":"uint256"},{"name":"totalSlots","type":"uint256","internalType":"uint256"},{"name":"filledSlots","type":"uint256","internalType":"uint256"},{"name":"totalDeposited","type":"uint256","internalType":"uint256"},{"name":"status","type":"uint8","internalType":"enum Kwest.TaskStatus"},{"name":"createdAt","type":"uint256","internalType":"uint256"},{"name":"deadline","type":"uint256","internalType":"uint256"},{"name":"rejectionCount","type":"uint256","internalType":"uint256"}]}],"stateMutability":"view"},{"type":"function","name":"getTaskSubmissions","inputs":[{"name":"taskId","type":"uint256","internalType":"uint256"}],"outputs":[{"name":"","type":"uint256[]","internalType":"uint256[]"}],"stateMutability":"view"},{"type":"function","name":"getWorkerSubmissionForTask","inputs":[{"name":"taskId","type":"uint256","internalType":"uint256"},{"name":"worker","type":"address","internalType":"address"}],"outputs":[{"name":"","type":"uint256","internalType":"uint256"}],"stateMutability":"view"},{"type":"function","name":"getWorkerSubmissions","inputs":[{"name":"worker","type":"address","internalType":"address"}],"outputs":[{"name":"","type":"uint256[]","internalType":"uint256[]"}],"stateMutability":"view"},{"type":"function","name":"nextSubmissionId","inputs":[],"outputs":[{"name":"","type":"uint256","internalType":"uint256"}],"stateMutability":"view"},{"type":"function","name":"nextTaskId","inputs":[],"outputs":[{"name":"","type":"uint256","internalType":"uint256"}],"stateMutability":"view"},{"type":"function","name":"owner","inputs":[],"outputs":[{"name":"","type":"address","internalType":"address"}],"stateMutability":"view"},{"type":"function","name":"quoteTask","inputs":[{"name":"rewardPerSlot","type":"uint256","internalType":"uint256"},{"name":"totalSlots","type":"uint256","internalType":"uint256"},{"name":"deductFeeFromPool","type":"bool","internalType":"bool"}],"outputs":[{"name":"transferAmount","type":"uint256","internalType":"uint256"},{"name":"rewardPool","type":"uint256","internalType":"uint256"},{"name":"fee","type":"uint256","internalType":"uint256"},{"name":"effectiveRewardPerSlot","type":"uint256","internalType":"uint256"}],"stateMutability":"pure"},{"type":"function","name":"rejectSubmission","inputs":[{"name":"submissionId","type":"uint256","internalType":"uint256"}],"outputs":[],"stateMutability":"nonpayable"},{"type":"function","name":"renounceOwnership","inputs":[],"outputs":[],"stateMutability":"nonpayable"},{"type":"function","name":"submissions","inputs":[{"name":"","type":"uint256","internalType":"uint256"}],"outputs":[{"name":"id","type":"uint256","internalType":"uint256"},{"name":"taskId","type":"uint256","internalType":"uint256"},{"name":"worker","type":"address","internalType":"address"},{"name":"proofData","type":"string","internalType":"string"},{"name":"proofType","type":"uint8","internalType":"enum Kwest.ProofType"},{"name":"status","type":"uint8","internalType":"enum Kwest.SubmissionStatus"},{"name":"submittedAt","type":"uint256","internalType":"uint256"},{"name":"claimed","type":"bool","internalType":"bool"}],"stateMutability":"view"},{"type":"function","name":"submitProof","inputs":[{"name":"taskId","type":"uint256","internalType":"uint256"},{"name":"proofData","type":"string","internalType":"string"}],"outputs":[{"name":"submissionId","type":"uint256","internalType":"uint256"}],"stateMutability":"nonpayable"},{"type":"function","name":"taskSubmissions","inputs":[{"name":"","type":"uint256","internalType":"uint256"},{"name":"","type":"uint256","internalType":"uint256"}],"outputs":[{"name":"","type":"uint256","internalType":"uint256"}],"stateMutability":"view"},{"type":"function","name":"tasks","inputs":[{"name":"","type":"uint256","internalType":"uint256"}],"outputs":[{"name":"id","type":"uint256","internalType":"uint256"},{"name":"creator","type":"address","internalType":"address"},{"name":"title","type":"string","internalType":"string"},{"name":"description","type":"string","internalType":"string"},{"name":"proofRequirements","type":"string","internalType":"string"},{"name":"proofType","type":"uint8","internalType":"enum Kwest.ProofType"},{"name":"rewardPerSlot","type":"uint256","internalType":"uint256"},{"name":"totalSlots","type":"uint256","internalType":"uint256"},{"name":"filledSlots","type":"uint256","internalType":"uint256"},{"name":"totalDeposited","type":"uint256","internalType":"uint256"},{"name":"status","type":"uint8","internalType":"enum Kwest.TaskStatus"},{"name":"createdAt","type":"uint256","internalType":"uint256"},{"name":"deadline","type":"uint256","internalType":"uint256"},{"name":"rejectionCount","type":"uint256","internalType":"uint256"}],"stateMutability":"view"},{"type":"function","name":"transferOwnership","inputs":[{"name":"newOwner","type":"address","internalType":"address"}],"outputs":[],"stateMutability":"nonpayable"},{"type":"function","name":"usdc","inputs":[],"outputs":[{"name":"","type":"address","internalType":"contract IERC20"}],"stateMutability":"view"},{"type":"function","name":"withdrawFees","inputs":[{"name":"to","type":"address","internalType":"address"}],"outputs":[],"stateMutability":"nonpayable"},{"type":"function","name":"workerSubmission","inputs":[{"name":"","type":"uint256","internalType":"uint256"},{"name":"","type":"address","internalType":"address"}],"outputs":[{"name":"","type":"uint256","internalType":"uint256"}],"stateMutability":"view"},{"type":"function","name":"workerSubmissions","inputs":[{"name":"","type":"address","internalType":"address"},{"name":"","type":"uint256","internalType":"uint256"}],"outputs":[{"name":"","type":"uint256","internalType":"uint256"}],"stateMutability":"view"},{"type":"event","name":"FeesWithdrawn","inputs":[{"name":"to","type":"address","indexed":true,"internalType":"address"},{"name":"amount","type":"uint256","indexed":false,"internalType":"uint256"}],"anonymous":false},{"type":"event","name":"OwnershipTransferred","inputs":[{"name":"previousOwner","type":"address","indexed":true,"internalType":"address"},{"name":"newOwner","type":"address","indexed":true,"internalType":"address"}],"anonymous":false},{"type":"event","name":"ProofSubmitted","inputs":[{"name":"submissionId","type":"uint256","indexed":true,"internalType":"uint256"},{"name":"taskId","type":"uint256","indexed":true,"internalType":"uint256"},{"name":"worker","type":"address","indexed":true,"internalType":"address"},{"name":"proofData","type":"string","indexed":false,"internalType":"string"}],"anonymous":false},{"type":"event","name":"RewardClaimed","inputs":[{"name":"submissionId","type":"uint256","indexed":true,"internalType":"uint256"},{"name":"worker","type":"address","indexed":true,"internalType":"address"},{"name":"amount","type":"uint256","indexed":false,"internalType":"uint256"}],"anonymous":false},{"type":"event","name":"SubmissionApproved","inputs":[{"name":"submissionId","type":"uint256","indexed":true,"internalType":"uint256"},{"name":"taskId","type":"uint256","indexed":true,"internalType":"uint256"},{"name":"worker","type":"address","indexed":true,"internalType":"address"}],"anonymous":false},{"type":"event","name":"SubmissionRejected","inputs":[{"name":"submissionId","type":"uint256","indexed":true,"internalType":"uint256"},{"name":"taskId","type":"uint256","indexed":true,"internalType":"uint256"},{"name":"worker","type":"address","indexed":true,"internalType":"address"}],"anonymous":false},{"type":"event","name":"TaskCancelled","inputs":[{"name":"taskId","type":"uint256","indexed":true,"internalType":"uint256"},{"name":"refundAmount","type":"uint256","indexed":false,"internalType":"uint256"}],"anonymous":false},{"type":"event","name":"TaskCreated","inputs":[{"name":"taskId","type":"uint256","indexed":true,"internalType":"uint256"},{"name":"creator","type":"address","indexed":true,"internalType":"address"},{"name":"rewardPerSlot","type":"uint256","indexed":false,"internalType":"uint256"},{"name":"totalSlots","type":"uint256","indexed":false,"internalType":"uint256"},{"name":"totalDeposited","type":"uint256","indexed":false,"internalType":"uint256"},{"name":"feePaid","type":"uint256","indexed":false,"internalType":"uint256"}],"anonymous":false},{"type":"error","name":"AlreadyClaimed","inputs":[]},{"type":"error","name":"AlreadySubmitted","inputs":[]},{"type":"error","name":"CannotCancelWithPendingSubmissions","inputs":[]},{"type":"error","name":"CreatorCannotComplete","inputs":[]},{"type":"error","name":"InsufficientReward","inputs":[]},{"type":"error","name":"InvalidDeadline","inputs":[]},{"type":"error","name":"InvalidSlotCount","inputs":[]},{"type":"error","name":"NoFeesToWithdraw","inputs":[]},{"type":"error","name":"NotSubmissionWorker","inputs":[]},{"type":"error","name":"NotTaskCreator","inputs":[]},{"type":"error","name":"OwnableInvalidOwner","inputs":[{"name":"owner","type":"address","internalType":"address"}]},{"type":"error","name":"OwnableUnauthorized","inputs":[{"name":"account","type":"address","internalType":"address"}]},{"type":"error","name":"SubmissionNotApproved","inputs":[]},{"type":"error","name":"SubmissionNotFound","inputs":[]},{"type":"error","name":"TaskDeadlinePassed","inputs":[]},{"type":"error","name":"TaskFull","inputs":[]},{"type":"error","name":"TaskNotActive","inputs":[]},{"type":"error","name":"TaskNotFound","inputs":[]},{"type":"error","name":"TooManySlotsForReward","inputs":[]},{"type":"error","name":"TransferFailed","inputs":[]},{"type":"error","name":"ZeroAddress","inputs":[]}],"bytecode":{"object":"0x60a0346200011f57601f6200290138819003918201601f19168301916001600160401b03831184841017620001235780849260409485528339810103126200011f576200005a6020620000528362000137565b920162000137565b60015f556001600160a01b039081169182156200010757600180546001600160a01b03191684179055604051925f7f8be0079c531659141344cd1fd0a4f28419497f9722a3daafe3b4186f6b6457e08180a316908115620000f85750608052600160025560016003556040516127b490816200014d82396080518181816104e501528181610df8015281816113540152818161167701526121d30152f35b63d92e233d60e01b8152600490fd5b604051631e4fbdf760e01b81525f6004820152602490fd5b5f80fd5b634e487b7160e01b5f52604160045260245ffd5b51906001600160a01b03821682036200011f5756fe6080806040526004361015610012575f80fd5b5f3560e01c908163057255821461227d57508063164e68de146121495780631d65e77e14611f0c5780632040e70e14611ec35780632835e03714611e5f57806329e3e78214611e425780632af00510146116fb57806335b96901146116de57806337cc1d53146116a65780633e413bee146116625780633e8686cc1461150d5780634371be07146114f05780634c90265b146114d557806353eea875146114a6578063587f5ed714611489578063715018a61461142d5780637eec20a81461124257806380324535146102db57806380fd0fb3146111535780638d977672146110335780638da5cb5b1461100b5780639c9fe7fe14610f6a578063ad73349e14610eb1578063ae169a5014610d3d578063bf333f2c14610d22578063c14f7ea814610bdd578063c1db9e8414610b6b578063c3a3a32114610392578063d9a391dd1461033b578063e1a452181461031f578063e49e19cb146102db578063e7f355eb14610251578063f2fde38b146101b35763fdc3d8d714610192575f80fd5b346101af575f3660031901126101af576020600254604051908152f35b5f80fd5b346101af5760203660031901126101af576101cc612296565b600154906001600160a01b0380831691338390036102395716918215610221576001600160a01b03191682176001557f8be0079c531659141344cd1fd0a4f28419497f9722a3daafe3b4186f6b6457e05f80a3005b604051631e4fbdf760e01b81525f6004820152602490fd5b604051632b0db6bd60e11b8152336004820152602490fd5b346101af576020806003193601126101af576001600160a01b03610273612296565b165f526009815260405f20906040518083838295549384815201905f52835f20925f5b858282106102c5575050506102ad92500383612419565b6102c1604051928284938452830190612333565b0390f35b8554845260019586019588955093019201610296565b346101af5760403660031901126101af576102f46122ac565b6004355f52600760205260405f209060018060a01b03165f52602052602060405f2054604051908152f35b346101af575f3660031901126101af5760206040516127108152f35b346101af5760403660031901126101af57610354612296565b6001600160a01b03165f908152600a60205260409020805460243591908210156101af576020916103849161231e565b90546040519160031b1c8152f35b346101af576101003660031901126101af576004356001600160401b0381116101af576103c3903690600401612366565b906024356001600160401b0381116101af576103e3903690600401612366565b926044356001600160401b0381116101af57610403903690600401612366565b949092600360643510156101af5760e435151560e435036101af5761042c60025f5414156124dc565b60025f556084359360a43515610b595760c435151580610b4d575b610b3b576207a12060843510610ae257624c4b406084351080610b2f575b610b1d5761047760a4356084356126f1565b9660c888029588870460c81489151715610b095760e43515610af457506104a26127108704896125e4565b936104af60a43586612704565b985b6207a1208a10610ae2576040516323b872dd60e01b815233600482015230602482015260448101919091526020816064815f7f00000000000000000000000000000000000000000000000000000000000000006001600160a01b03165af1908115610ad7575f91610aa8575b5015610a96576105869361057a9161053b6127108a04600454612608565b60045561056e6002549a61054e8c612540565b6002556040519961055e8b6123e1565b8c8b523360208c0152369161254e565b6040890152369161254e565b6060860152369161254e565b6080830152610596606435612300565b60643560a08301528460c083015260a43560e08301525f610100830152806101208301525f6101408301524261016083015260c4356101808301525f6101a0830152835f52600560205260405f20825181556001810160018060a01b036020850151166001600160601b0360a01b82541617905560408301518051906001600160401b0382116108f057819061062f60028501546123a9565b601f8111610a46575b50602090601f83116001146109d8575f926109cd575b50508160011b915f199060031b1c19161760028201555b60608301518051906001600160401b0382116108f057819061068a60038501546123a9565b601f811161097d575b50602090601f831160011461090f575f92610904575b50508160011b915f199060031b1c19161760038201555b60808301518051906001600160401b0382116108f0576106e360048401546123a9565b601f81116108ac575b5091869391602098938990601f8311600114610814579682600d936101a0937f098272ff2f342098352b94309292f90a3401d0663acb8d0631a8838243d21f44999a5f92610809575b50508160011b915f199060031b1c19161760048501555b61076660a082015161075d81612300565b60058601612593565b60c0810151600685015560e08101516007850155610100810151600885015561012081015160098501556107ab6101408201516107a281612300565b600a8601612593565b610160810151600b850155610180810151600c8501550151910155335f52600a87526107da8460405f206125ab565b6040805192835260a435602084015282015261271090930460608401523392608090a360015f55604051908152f35b015190508d80610735565b60048498939298015f528a5f20905f5b601f1984168110610892575082600d94927f098272ff2f342098352b94309292f90a3401d0663acb8d0631a8838243d21f44999a6001936101a096601f1981161061087a575b505050811b01600485015561074c565b01515f1960f88460031b161c191690558d808061086a565b818a01518355988c01988b98506001909201918c01610824565b600484015f5260205f20601f840160051c8101602085106108e9575b601f830160051c820181106108de5750506106ec565b5f81556001016108c8565b50806108c8565b634e487b7160e01b5f52604160045260245ffd5b0151905088806106a9565b9250600384015f5260205f20905f935b601f1984168510610962576001945083601f1981161061094a575b505050811b0160038201556106c0565b01515f1960f88460031b161c1916905588808061093a565b8181015183556020948501946001909301929091019061091f565b909150600384015f5260205f20601f840160051c8101602085106109c6575b90849392915b601f830160051c820181106109b8575050610693565b5f81558594506001016109a2565b508061099c565b01519050888061064e565b9250600284015f5260205f20905f935b601f1984168510610a2b576001945083601f19811610610a13575b505050811b016002820155610665565b01515f1960f88460031b161c19169055888080610a03565b818101518355602094850194600190930192909101906109e8565b909150600284015f5260205f20601f840160051c810160208510610a8f575b90849392915b601f830160051c82018110610a81575050610638565b5f8155859450600101610a6b565b5080610a65565b6040516312171d8360e31b8152600490fd5b610aca915060203d602011610ad0575b610ac28183612419565b810190612528565b8a61051d565b503d610ab8565b6040513d5f823e3d90fd5b604051636bbdb6db60e11b8152600490fd5b9793610b04612710880486612608565b6104b1565b634e487b7160e01b5f52601160045260245ffd5b6040516347bdb57f60e11b8152600490fd5b50600a60a43511610465565b604051631da7447960e21b8152600490fd5b504260c4351115610447565b604051637894fcef60e01b8152600490fd5b346101af576020806003193601126101af576001600160a01b03610b8d612296565b165f52600a815260405f20906040518083838295549384815201905f52835f20925f5b85828210610bc7575050506102ad92500383612419565b8554845260019586019588955093019201610bb0565b346101af5760203660031901126101af57600435610bff60025f5414156124dc565b60025f55610c0c81612722565b60018101610c1a8154612742565b60048301805460ff8160081c16610c3081612300565b610d1057600783015492600384029380850460031490151715610b0957600d019283541015610cac5761ff0019166102001790558054610c6f90612540565b9055546002909101546001600160a01b0316917f0c85652d2ac95894ed3aa3311d30cef8a307693957451a95f4b7ace387907c2a5f80a460015f55005b60405162461bcd60e51b815260206004820152603660248201527f4b776573743a2072656a656374696f6e206c696d697420726561636865642c206044820152756d75737420617070726f76652072656d61696e696e6760501b6064820152608490fd5b6040516348f6fffd60e11b8152600490fd5b346101af575f3660031901126101af57602060405160c88152f35b346101af576020806003193601126101af57600435610d6060025f5414156124dc565b60025f55610d6d81612722565b60028101549092906001600160a01b039081163303610e9f57600160ff600486015460081c16610d9c81612300565b03610e8e576006840180549460ff8616610e7c576001908101545f9081526005855260408082206006015460ff19989098169092179092555163a9059cbb60e01b815233600482015260248101869052918391839160449183917f0000000000000000000000000000000000000000000000000000000000000000165af1908115610ad7575f91610e5f575b5015610a96577f24b5efa61dd1cfc659205a97fb8ed868f3cb8c81922bab2b96423e5de1de2cb7906040519384523393a360015f55005b610e769150823d8411610ad057610ac28183612419565b84610e28565b604051630c8d9eab60e31b8152600490fd5b60405162325f4560e91b8152600490fd5b60405163156b682160e11b8152600490fd5b346101af5760203660031901126101af576004355f9081526006602052604090208054600182015460028301546001600160a01b0316929091610ef66003830161243a565b91600481015492610f3d60ff8086169560081c169160ff600660058601549501541694604051988998610100928a5260208a015260408901528060608901528701906122c2565b93610f4781612300565b6080860152610f5581612300565b60a085015260c0840152151560e08301520390f35b346101af5760603660031901126101af5760243560043560443580151581036101af57610f9783836126f1565b9160c8830283810460c81484151715610b095761271090049115610ff3575080610fce610fc76102c193856125e4565b9485612704565b905b604051948594859094939260609260808301968352602083015260408201520152565b9250806110036102c19284612608565b929390610fd0565b346101af575f3660031901126101af576001546040516001600160a01b039091168152602090f35b346101af5760203660031901126101af576004355f908152600560205260409020805460018201546001600160a01b0316916110716002820161243a565b61107d6003830161243a565b9161108a6004820161243a565b92600582015460ff169360068301546007840154600885015490600986015492600a87015460ff1694600b88015496600c89015498600d0154996040519d8e9d8e6101c092839282526020820152604001528d016110e7916122c2565b8c810360608e01526110f8916122c2565b8b810360808d0152611109916122c2565b9861111381612300565b60a08b015260c08a015260e089015261010088015261012087015261113781612300565b6101408601526101608501526101808401526101a08301520390f35b346101af5760203660031901126101af5760043561117560025f5414156124dc565b60025f5561118281612722565b600181016111908154612742565b60048301805460ff8160081c166111a681612300565b610d105760088301918254916007850192835411156112305761ff00191661010017905581546111d590612540565b80925554111561121c575b50546002909101546001600160a01b0316917f79ed1a93ce019803ed4c604b35cec8bbb8be532a8afdc6cf0296ba024362caa65f80a460015f55005b600a01805460ff19166001179055836111e0565b604051631fb94a6d60e31b8152600490fd5b346101af576020806003193601126101af576004359061126660025f5414156124dc565b60025f55815f526005815260405f209060018060a01b0391600183600183015416801561141b57330361140957600a82019081549060ff8083166112a981612300565b6113f7575f888152600880885260408220805493925b8481106113ad578b8b8b6112f58c8c60028d60ff191617905560096112ed60088301546006840154906126f1565b9101546125e4565b918261132c575b507f58716386e17644e69ff7358e3317a395f4523fcd0fb9cc227ee68d117ebbfbfc91604051908152a260015f55005b60405163a9059cbb60e01b815233600482015260248101849052908290829060449082905f907f0000000000000000000000000000000000000000000000000000000000000000165af1908115610ad7575f91611390575b5015610a9657836112fc565b6113a79150823d8411610ad057610ac28183612419565b84611384565b6113b7818361231e565b90549060031b1c5f5260068a5283600460405f200154841c166113d981612300565b156113e55785016112bf565b6040516308a2247360e01b8152600490fd5b60405163621a8e4d60e01b8152600490fd5b60405163eabf778760e01b8152600490fd5b60405163c325ae3360e01b8152600490fd5b346101af575f3660031901126101af576001546001600160a01b03811633819003610239575f916001600160601b0360a01b166001557f8be0079c531659141344cd1fd0a4f28419497f9722a3daafe3b4186f6b6457e08280a3005b346101af575f3660031901126101af576020600454604051908152f35b346101af576114b436612393565b905f52600860205260405f2080548210156101af576020916103849161231e565b346101af575f3660031901126101af576020604051600a8152f35b346101af575f3660031901126101af5760206040516207a1208152f35b346101af576020806003193601126101af575f60e060405161152e816123fd565b82815282848201528260408201526060808201528260808201528260a08201528260c082015201526004355f526006815260405f2060405190611570826123fd565b80548252600181015483830190815260028201546001600160a01b039081166040850190815290929091906115a76003820161243a565b6060860190815260048201549460ff8087169660808901976115c881612300565b885260081c169460a08801956115dd81612300565b865260ff600660058601549560c08b019687520154169460e089019515158652604051998a99818b5251908a0152516040890152511660608701525192611632610100948560808901526101208801906122c2565b945161163d81612300565b60a08701525161164c81612300565b60c08601525160e0850152511515908301520390f35b346101af575f3660031901126101af576040517f00000000000000000000000000000000000000000000000000000000000000006001600160a01b03168152602090f35b346101af576116d46116c06116ba36612393565b90612615565b604051928392604084526040840190612333565b9060208301520390f35b346101af575f3660031901126101af576020600354604051908152f35b346101af5760403660031901126101af576024356001600160401b0381116101af5761172b903690600401612366565b9061173a60025f5414156124dc565b60025f908155600435815260056020526040902060018101546001600160a01b0316801561141b5760ff600a8301541661177381612300565b6113f757600c8201548015159081611e38575b50611e26573314611e1457600881015460078201541115611230576004355f52600760205260405f20335f5260205260405f2054611e02578215610d10576005019060ff8254166117d836858461254e565b906117e281612300565b80611b125750600a905110611aba575b60ff6003549261180184612540565b60035554169260405193611814856123fd565b838552600435602086015233604086015261183036838561254e565b606086015261183e81612300565b60808501525f60a08501524260c08501525f60e0850152825f52600660205260405f209380518555602081015160018601556002850160018060a01b036040830151166001600160601b0360a01b82541617905560608101519485516001600160401b0381116108f0576118b560038301546123a9565b96601f8811611a72575b602097508790601f8311600114611a0357918060e094926006945f926119f8575b50508160011b915f199060031b1c19161760038201555b60048101611912608086015161190c81612300565b82612593565b60a085015161192081612300565b61192981612300565b61ff0082549160081b169061ff00191617905560c0840151600582015501910151151560ff801983541691161790556004355f526007845260405f20335f5284528260405f20556004355f52600884526119868360405f206125ab565b335f526009845261199a8360405f206125ab565b8060405192858452818685015260408401375f60408284010152827f380904a35de4f0af1fc624c50d5e175bc3d642a207ed882e3a7e1ec0606ac5d7339360408160043595601f80199101168101030190a460015f55604051908152f35b015190508a806118e0565b90600384015f52885f20915f5b601f1985168110611a5b57509260e0949260019260069583601f19811610611a43575b505050811b0160038201556118f7565b01515f1960f88460031b161c191690558a8080611a33565b91928a600181928685015181550194019201611a10565b600383015f5260205f20601f830160051c81019860208410611ab0575b601f0160051c01975b888110611aa557506118bf565b5f8155600101611a98565b9098508890611a8f565b60405162461bcd60e51b815260206004820152602a60248201527f4b776573743a20746578742070726f6f6620746f6f2073686f727420286d696e6044820152692031302063686172732960b01b6064820152608490fd5b611b1b81612300565b60018103611c4a5750805190600782119182611c26575b5081611bff575b81611bd8575b81611b9e575b506117f25760405162461bcd60e51b815260206004820152602660248201527f4b776573743a206c696e6b2070726f6f66206d7573742073746172742077697460448201526506820687474760d41b6064820152608490fd5b8091505160031015611bc457602301516001600160f81b031916600760fc1b1484611b45565b634e487b7160e01b5f52603260045260245ffd5b8091505160021015611bc45760228101516001600160f81b031916601d60fa1b1490611b3f565b8091505160011015611bc45760218101516001600160f81b031916601d60fa1b1490611b39565b90915015611bc45760208101516001600160f81b031916600d60fb1b149085611b32565b80611c56600292612300565b14611c62575b506117f2565b805190602e8210159182611dde575b5081611db7575b8115611cf6575b5015611c8b5783611c5c565b60405162461bcd60e51b815260206004820152603860248201527f4b776573743a20495046532070726f6f66206d75737420626520612076616c6960448201527f64204349442028516d2e2e2e206f7220626166792e2e2e2900000000000000006064820152608490fd5b8051603b811015925082611d93575b5081611d6c575b81611d45575b81611d1f575b5084611c7f565b8091505160031015611bc457602301516001600160f81b031916607960f81b1484611d18565b8091505160021015611bc45760228101516001600160f81b031916603360f91b1490611d12565b8091505160011015611bc45760218101516001600160f81b031916606160f81b1490611d0c565b90915015611bc45760208101516001600160f81b031916603160f91b149085611d05565b8091505160011015611bc45760218101516001600160f81b031916606d60f81b1490611c78565b90915015611bc45760208101516001600160f81b031916605160f81b149085611c71565b604051639fbfc58960e01b8152600490fd5b604051631c75c6ad60e21b8152600490fd5b604051633de1069b60e21b8152600490fd5b9050421185611786565b346101af575f3660031901126101af576020604051624c4b408152f35b346101af576020806003193601126101af576004355f526008815260405f20906040518083838295549384815201905f52835f20925f5b85828210611ead575050506102ad92500383612419565b8554845260019586019588955093019201611e96565b346101af5760403660031901126101af57611edc612296565b6001600160a01b03165f908152600960205260409020805460243591908210156101af576020916103849161231e565b346101af5760203660031901126101af575f6101a0604051611f2d816123e1565b82815282602082015260606040820152606080820152606060808201528260a08201528260c08201528260e0820152826101008201528261012082015282610140820152826101608201528261018082015201526004355f52600560205260405f20600d60405191611f9e836123e1565b8054835260018101546001600160a01b03166020840152611fc16002820161243a565b6040840152611fd26003820161243a565b6060840152611fe36004820161243a565b608084015260ff600582015416611ff981612300565b60a0840152600681015460c0840152600781015460e08401526008810154610100840152600981015461012084015260ff600a8201541661203981612300565b610140840152600b810154610160840152600c81015461018084015201546101a08201526040518091602082528051602083015260018060a01b0360208201511660408301526101a06120d16120a060408401516101c060608701526101e08601906122c2565b6120bc606085015191601f1992838883030160808901526122c2565b906080850151908683030160a08701526122c2565b9160a08101516120e081612300565b60c085015260c081015160e085015260e081015161010085015261010081015161012085015261012081015161014085015261014081015161212181612300565b6101608501526101608101516101808501526101808101518285015201516101c08301520390f35b346101af5760203660031901126101af57612162612296565b6001546001600160a01b0390811633036102395761218460025f5414156124dc565b60025f5580821691821561226b57600454918215612259575f600481815560405163a9059cbb60e01b81526001600160a01b0394909416908401526024830184905260209183916044918391907f0000000000000000000000000000000000000000000000000000000000000000165af1908115610ad7575f9161223a575b5015610a965760207fc0819c13be868895eb93e40eaceb96de976442fa1d404e5c55f14bb65a8c489a91604051908152a260015f55005b612253915060203d602011610ad057610ac28183612419565b83612203565b604051630d00db4d60e31b8152600490fd5b60405163d92e233d60e01b8152600490fd5b346101af575f3660031901126101af5780600360209252f35b600435906001600160a01b03821682036101af57565b602435906001600160a01b03821682036101af57565b91908251928382525f5b8481106122ec575050825f602080949584010152601f8019910116010190565b6020818301810151848301820152016122cc565b6003111561230a57565b634e487b7160e01b5f52602160045260245ffd5b8054821015611bc4575f5260205f2001905f90565b9081518082526020808093019301915f5b828110612352575050505090565b835185529381019392810192600101612344565b9181601f840112156101af578235916001600160401b0383116101af57602083818601950101116101af57565b60409060031901126101af576004359060243590565b90600182811c921680156123d7575b60208310146123c357565b634e487b7160e01b5f52602260045260245ffd5b91607f16916123b8565b6101c081019081106001600160401b038211176108f057604052565b61010081019081106001600160401b038211176108f057604052565b90601f801991011681019081106001600160401b038211176108f057604052565b9060405191825f825461244c816123a9565b908184526020946001916001811690815f146124ba575060011461247c575b50505061247a92500383612419565b565b5f90815285812095935091905b8183106124a257505061247a93508201015f808061246b565b85548884018501529485019487945091830191612489565b9250505061247a94925060ff191682840152151560051b8201015f808061246b565b156124e357565b60405162461bcd60e51b815260206004820152601f60248201527f5265656e7472616e637947756172643a207265656e7472616e742063616c6c006044820152606490fd5b908160209103126101af575180151581036101af5790565b5f198114610b095760010190565b9291926001600160401b0382116108f05760405191612577601f8201601f191660200184612419565b8294818452818301116101af578281602093845f960137010152565b9061259d81612300565b60ff80198354169116179055565b8054680100000000000000008110156108f0576125cd9160018201815561231e565b819291549060031b91821b915f19901b1916179055565b91908203918211610b0957565b6001600160401b0381116108f05760051b60200190565b91908201809211610b0957565b91600254915f198301928311610b095782808510156126c557506126399084612608565b838382116126bd575b61264b916125e4565b612654816125f1565b906126626040519283612419565b80825261266e816125f1565b602090601f1901368483013782955f5b83811061268c575050505050565b6126968183612608565b9060018201809211610b09578551811015611bc457600191848260051b880101520161267e565b839150612642565b9350509050604051602081018181106001600160401b038211176108f0576040525f81525f3681379190565b81810292918115918404141715610b0957565b811561270e570490565b634e487b7160e01b5f52601260045260245ffd5b5f52600660205260405f209060018060a01b0360028301541615610d1057565b5f52600560205260405f209060018060a01b03600183015416801561141b5733036114095760ff600a8301541661277881612300565b6113f75756fea2646970667358221220c34da3adf890cb8a2691c2f468f114c48349d6f1391a11db754c0cf4de702b3564736f6c63430008180033","linkReferences":{}},"methodIdentifiers":{"BPS_DENOMINATOR()":"e1a45218","FEE_BPS()":"bf333f2c","LOW_REWARD_MAX_SLOTS()":"4c90265b","LOW_REWARD_THRESHOLD()":"29e3e782","MIN_REWARD_PER_SLOT()":"4371be07","REJECTION_MULTIPLIER()":"05725582","accumulatedFees()":"587f5ed7","approveSubmission(uint256)":"80fd0fb3","cancelTask(uint256)":"7eec20a8","claimReward(uint256)":"ae169a50","createTask(string,string,string,uint8,uint256,uint256,uint256,bool)":"c3a3a321","creatorTasks(address,uint256)":"d9a391dd","getAllTaskIds(uint256,uint256)":"37cc1d53","getCreatorTasks(address)":"c1db9e84","getSubmission(uint256)":"3e8686cc","getTask(uint256)":"1d65e77e","getTaskSubmissions(uint256)":"2835e037","getWorkerSubmissionForTask(uint256,address)":"80324535","getWorkerSubmissions(address)":"e7f355eb","nextSubmissionId()":"35b96901","nextTaskId()":"fdc3d8d7","owner()":"8da5cb5b","quoteTask(uint256,uint256,bool)":"9c9fe7fe","rejectSubmission(uint256)":"c14f7ea8","renounceOwnership()":"715018a6","submissions(uint256)":"ad73349e","submitProof(uint256,string)":"2af00510","taskSubmissions(uint256,uint256)":"53eea875","tasks(uint256)":"8d977672","transferOwnership(address)":"f2fde38b","usdc()":"3e413bee","withdrawFees(address)":"164e68de","workerSubmission(uint256,address)":"e49e19cb","workerSubmissions(address,uint256)":"2040e70e"},"id":19}